{
  "_format": "hh-sol-artifact-1",
  "contractName": "Registration",
  "sourceName": "contracts/Registration.sol",
  "abi": [
    {
      "inputs": [],
      "stateMutability": "nonpayable",
      "type": "constructor"
    },
    {
      "inputs": [],
      "name": "notOwner",
      "type": "error"
    },
    {
      "anonymous": false,
      "inputs": [
        {
          "indexed": true,
          "internalType": "address",
          "name": "hash",
          "type": "address"
        },
        {
          "indexed": true,
          "internalType": "uint256",
          "name": "experience",
          "type": "uint256"
        }
      ],
      "name": "instructorRegistered",
      "type": "event"
    },
    {
      "anonymous": false,
      "inputs": [
        {
          "indexed": true,
          "internalType": "address",
          "name": "hash",
          "type": "address"
        },
        {
          "indexed": false,
          "internalType": "string",
          "name": "_lastName",
          "type": "string"
        }
      ],
      "name": "instructorVerified",
      "type": "event"
    },
    {
      "anonymous": false,
      "inputs": [
        {
          "indexed": true,
          "internalType": "address",
          "name": "_hash",
          "type": "address"
        }
      ],
      "name": "studentRegistered",
      "type": "event"
    },
    {
      "stateMutability": "payable",
      "type": "fallback"
    },
    {
      "inputs": [],
      "name": "Owner",
      "outputs": [
        {
          "internalType": "address",
          "name": "",
          "type": "address"
        }
      ],
      "stateMutability": "view",
      "type": "function"
    },
    {
      "inputs": [
        {
          "internalType": "address[]",
          "name": "_adminAddresses",
          "type": "address[]"
        }
      ],
      "name": "addAdmin",
      "outputs": [],
      "stateMutability": "nonpayable",
      "type": "function"
    },
    {
      "inputs": [
        {
          "internalType": "string",
          "name": "_firstName",
          "type": "string"
        },
        {
          "internalType": "string",
          "name": "_lastName",
          "type": "string"
        },
        {
          "internalType": "string",
          "name": "_gender",
          "type": "string"
        },
        {
          "internalType": "string",
          "name": "_emailAddress",
          "type": "string"
        }
      ],
      "name": "enrollStudent",
      "outputs": [],
      "stateMutability": "nonpayable",
      "type": "function"
    },
    {
      "inputs": [
        {
          "internalType": "address",
          "name": "_instructorAddress",
          "type": "address"
        }
      ],
      "name": "fireInstructor",
      "outputs": [],
      "stateMutability": "nonpayable",
      "type": "function"
    },
    {
      "inputs": [],
      "name": "instructorRegistrationFee",
      "outputs": [
        {
          "internalType": "uint256",
          "name": "",
          "type": "uint256"
        }
      ],
      "stateMutability": "view",
      "type": "function"
    },
    {
      "inputs": [
        {
          "internalType": "address",
          "name": "",
          "type": "address"
        }
      ],
      "name": "isInstructor",
      "outputs": [
        {
          "internalType": "bool",
          "name": "",
          "type": "bool"
        }
      ],
      "stateMutability": "view",
      "type": "function"
    },
    {
      "inputs": [
        {
          "internalType": "address",
          "name": "",
          "type": "address"
        }
      ],
      "name": "isInstructorVerified",
      "outputs": [
        {
          "internalType": "bool",
          "name": "",
          "type": "bool"
        }
      ],
      "stateMutability": "view",
      "type": "function"
    },
    {
      "inputs": [
        {
          "internalType": "string",
          "name": "_firstName",
          "type": "string"
        },
        {
          "internalType": "string",
          "name": "_lastName",
          "type": "string"
        },
        {
          "internalType": "string",
          "name": "_gender",
          "type": "string"
        },
        {
          "internalType": "string",
          "name": "_emailAddress",
          "type": "string"
        },
        {
          "internalType": "uint256",
          "name": "_experience",
          "type": "uint256"
        }
      ],
      "name": "registerInstructor",
      "outputs": [],
      "stateMutability": "payable",
      "type": "function"
    },
    {
      "inputs": [
        {
          "internalType": "address[]",
          "name": "_instructorAddress",
          "type": "address[]"
        }
      ],
      "name": "verifyInstructors",
      "outputs": [],
      "stateMutability": "nonpayable",
      "type": "function"
    },
    {
      "inputs": [],
      "name": "withdraw",
      "outputs": [],
      "stateMutability": "nonpayable",
      "type": "function"
    },
    {
      "stateMutability": "payable",
      "type": "receive"
    }
  ],
  "bytecode": "0x60c0604052600060a05234801561001557600080fd5b503360805260805160a05161185661005b6000396000818161014401526106bb0152600081816101e901528181610482015281816104ce015261059301526118566000f3fe60806040526004361061008f5760003560e01c806380358ead1161005657806380358ead14610174578063a3afcea214610187578063b4a61678146101b7578063b4a99a4e146101d7578063d862ff951461022357005b80632823af78146100985780633ccfd60b146100b85780633d0950a8146100cd57806364af64a9146100ed578063682e42811461013257005b3661009657005b005b3480156100a457600080fd5b506100966100b336600461125f565b610243565b3480156100c457600080fd5b50610096610480565b3480156100d957600080fd5b506100966100e836600461125f565b610591565b3480156100f957600080fd5b5061011d61010836600461130c565b60096020526000908152604090205460ff1681565b60405190151581526020015b60405180910390f35b34801561013e57600080fd5b506101667f000000000000000000000000000000000000000000000000000000000000000081565b604051908152602001610129565b61009661018236600461139e565b61064d565b34801561019357600080fd5b5061011d6101a236600461130c565b60086020526000908152604090205460ff1681565b3480156101c357600080fd5b506100966101d2366004611453565b6108bd565b3480156101e357600080fd5b5061020b7f000000000000000000000000000000000000000000000000000000000000000081565b6040516001600160a01b039091168152602001610129565b34801561022f57600080fd5b5061009661023e36600461130c565b610a53565b600080548060200260200160405190810160405280929190818152602001828054801561029957602002820191906000526020600020905b81546001600160a01b0316815260019091019060200180831161027b575b50505050506000805b82518110156102f8578281815181106102bd576102bd611500565b60200260200101516001600160a01b0316336001600160a01b0316036102e657600191506102f8565b806102f08161152c565b9150506102a2565b506001811515146103245760405162461bcd60e51b815260040161031b90611545565b60405180910390fd5b60005b835181101561047a57600061035485838151811061034757610347611500565b6020026020010151610d04565b9050600160c082018190525060a08101516006805460018101825560009182527ff652222313e28459528d920b65115c16c04f3efc82aaedc97be59f3f377c0d3f0180546001600160a01b0319166001600160a01b039093169290921790915560038054916103c28361152c565b91905055506001600960008785815181106103df576103df611500565b60200260200101516001600160a01b03166001600160a01b0316815260200190815260200160002060006101000a81548160ff0219169083151502179055508060a001516001600160a01b03167f3208c53e69106ad2cdd490d2233799337c41fa0601c89b87acf0a6ed3bc7f094826020015160405161045f9190611580565b60405180910390a250806104728161152c565b915050610327565b50505050565b7f0000000000000000000000000000000000000000000000000000000000000000336001600160a01b038216146104ca5760405163251c9d6360e01b815260040160405180910390fd5b60007f00000000000000000000000000000000000000000000000000000000000000006001600160a01b03164760405160006040518083038185875af1925050503d8060008114610537576040519150601f19603f3d011682016040523d82523d6000602084013e61053c565b606091505b505090508061058d5760405162461bcd60e51b815260206004820152601760248201527f54686973205472616e73616374696f6e204661696c6564000000000000000000604482015260640161031b565b5050565b7f0000000000000000000000000000000000000000000000000000000000000000336001600160a01b038216146105db5760405163251c9d6360e01b815260040160405180910390fd5b60005b82518110156106485760008382815181106105fb576105fb611500565b60209081029190910181015182546001810184556000938452919092200180546001600160a01b0319166001600160a01b03909216919091179055806106408161152c565b9150506105de565b505050565b3360009081526008602052604090205460ff16156106b95760405162461bcd60e51b815260206004820152602360248201527f616c7265616479207265676973746572656420617320616e20696e73747275636044820152623a37b960e91b606482015260840161031b565b7f00000000000000000000000000000000000000000000000000000000000000003410156107295760405162461bcd60e51b815260206004820152601d60248201527f496e73756666696369656e7420726567697374726174696f6e20666565000000604482015260640161031b565b60006040518060e00160405280878152602001868152602001858152602001848152602001838152602001336001600160a01b03168152602001600060018111156107765761077661156a565b9052600580546001810182556000919091528151919250829160069091027f036b6384b5eca791c62761152d0c79bb0604c104a5fb6f4eb0703f3154bb3db0019081906107c39082611656565b50602082015160018201906107d89082611656565b50604082015160028201906107ed9082611656565b50606082015160038201906108029082611656565b506080820151600482015560a08201516005820180546001600160a01b039092166001600160a01b031983168117825560c0850151926001600160a81b03191617600160a01b83600181111561085a5761085a61156a565b02179055505060028054915060006108718361152c565b919050555080608001518160a001516001600160a01b03167f5f15cd5ddbeb6f221b9ff9af80a646b9d52716055eb2d3c1c477759364c208e860405160405180910390a3505050505050565b3360009081526007602052604090205460ff161561091d5760405162461bcd60e51b815260206004820152601f60248201527f616c7265616479207265676973746572656420617320612073747564656e7400604482015260640161031b565b60006040518060c00160405280868152602001858152602001848152602001838152602001600160008154809291906109559061152c565b90915550815233602090910152600480546001810182556000919091528151919250829160069091027f8a35acfbc15ff81a39ae7d344fd709f28e8600b4aa8c65c6b64bfe7fe36bd19b019081906109ad9082611656565b50602082015160018201906109c29082611656565b50604082015160028201906109d79082611656565b50606082015160038201906109ec9082611656565b506080820151600482015560a091820151600590910180546001600160a01b0319166001600160a01b03928316179055908201516040519116907f0e2041cc651cc18ec0a779dc9785f573eb366eaacf6d772cd1d06d97b7e17e2a90600090a25050505050565b6000805480602002602001604051908101604052809291908181526020018280548015610aa957602002820191906000526020600020905b81546001600160a01b03168152600190910190602001808311610a8b575b50505050506000805b8251811015610b0857828181518110610acd57610acd611500565b60200260200101516001600160a01b0316336001600160a01b031603610af65760019150610b08565b80610b008161152c565b915050610ab2565b50600181151514610b2b5760405162461bcd60e51b815260040161031b90611545565b60005b60055481101561047a57836001600160a01b031660058281548110610b5557610b55611500565b60009182526020909120600560069092020101546001600160a01b031603610cf25760058054610b8790600190611716565b81548110610b9757610b97611500565b906000526020600020906006020160058281548110610bb857610bb8611500565b6000918252602090912060069091020180610bd3838261172f565b50600181810190610be69084018261172f565b50600281810190610bf99084018261172f565b50600381810190610c0c9084018261172f565b50600482810154908201556005808301805491830180546001600160a01b031981166001600160a01b039094169384178255915460ff600160a01b91829004169391926001600160a81b03191690911790836001811115610c6f57610c6f61156a565b02179055509050506005805480610c8857610c8861180a565b60008281526020812060001990920191600683020190610ca88282611150565b610cb6600183016000611150565b610cc4600283016000611150565b610cd2600383016000611150565b506000600482015560050180546001600160a81b0319169055905561047a565b80610cfc8161152c565b915050610b2e565b610d0c61118d565b6000805480602002602001604051908101604052809291908181526020018280548015610d6257602002820191906000526020600020905b81546001600160a01b03168152600190910190602001808311610d44575b50505050506000805b8251811015610dc157828181518110610d8657610d86611500565b60200260200101516001600160a01b0316336001600160a01b031603610daf5760019150610dc1565b80610db98161152c565b915050610d6b565b50600181151514610de45760405162461bcd60e51b815260040161031b90611545565b60005b60055481101561110c5760058181548110610e0457610e04611500565b60009182526020909120600560069092020101546001600160a01b03908116908616036110fa5760058181548110610e3e57610e3e611500565b90600052602060002090600602016040518060e0016040529081600082018054610e67906115ce565b80601f0160208091040260200160405190810160405280929190818152602001828054610e93906115ce565b8015610ee05780601f10610eb557610100808354040283529160200191610ee0565b820191906000526020600020905b815481529060010190602001808311610ec357829003601f168201915b50505050508152602001600182018054610ef9906115ce565b80601f0160208091040260200160405190810160405280929190818152602001828054610f25906115ce565b8015610f725780601f10610f4757610100808354040283529160200191610f72565b820191906000526020600020905b815481529060010190602001808311610f5557829003601f168201915b50505050508152602001600282018054610f8b906115ce565b80601f0160208091040260200160405190810160405280929190818152602001828054610fb7906115ce565b80156110045780601f10610fd957610100808354040283529160200191611004565b820191906000526020600020905b815481529060010190602001808311610fe757829003601f168201915b5050505050815260200160038201805461101d906115ce565b80601f0160208091040260200160405190810160405280929190818152602001828054611049906115ce565b80156110965780601f1061106b57610100808354040283529160200191611096565b820191906000526020600020905b81548152906001019060200180831161107957829003601f168201915b50505091835250506004820154602082015260058201546001600160a01b0381166040830152606090910190600160a01b900460ff1660018111156110dd576110dd61156a565b60018111156110ee576110ee61156a565b81525050935050611149565b806111048161152c565b915050610de7565b5060405162461bcd60e51b81526020600482015260116024820152702737ba1030b71024b739ba393ab1ba37b960791b604482015260640161031b565b5050919050565b50805461115c906115ce565b6000825580601f1061116c575050565b601f01602090049060005260206000209081019061118a91906111e3565b50565b6040518060e00160405280606081526020016060815260200160608152602001606081526020016000815260200160006001600160a01b03168152602001600060018111156111de576111de61156a565b905290565b5b808211156111f857600081556001016111e4565b5090565b634e487b7160e01b600052604160045260246000fd5b604051601f8201601f1916810167ffffffffffffffff8111828210171561123b5761123b6111fc565b604052919050565b80356001600160a01b038116811461125a57600080fd5b919050565b6000602080838503121561127257600080fd5b823567ffffffffffffffff8082111561128a57600080fd5b818501915085601f83011261129e57600080fd5b8135818111156112b0576112b06111fc565b8060051b91506112c1848301611212565b81815291830184019184810190888411156112db57600080fd5b938501935b83851015611300576112f185611243565b825293850193908501906112e0565b98975050505050505050565b60006020828403121561131e57600080fd5b61132782611243565b9392505050565b600082601f83011261133f57600080fd5b813567ffffffffffffffff811115611359576113596111fc565b61136c601f8201601f1916602001611212565b81815284602083860101111561138157600080fd5b816020850160208301376000918101602001919091529392505050565b600080600080600060a086880312156113b657600080fd5b853567ffffffffffffffff808211156113ce57600080fd5b6113da89838a0161132e565b965060208801359150808211156113f057600080fd5b6113fc89838a0161132e565b9550604088013591508082111561141257600080fd5b61141e89838a0161132e565b9450606088013591508082111561143457600080fd5b506114418882890161132e565b95989497509295608001359392505050565b6000806000806080858703121561146957600080fd5b843567ffffffffffffffff8082111561148157600080fd5b61148d8883890161132e565b955060208701359150808211156114a357600080fd5b6114af8883890161132e565b945060408701359150808211156114c557600080fd5b6114d18883890161132e565b935060608701359150808211156114e757600080fd5b506114f48782880161132e565b91505092959194509250565b634e487b7160e01b600052603260045260246000fd5b634e487b7160e01b600052601160045260246000fd5b60006001820161153e5761153e611516565b5060010190565b6020808252600b908201526a4f6e6c792041646d696e7360a81b604082015260600190565b634e487b7160e01b600052602160045260246000fd5b600060208083528351808285015260005b818110156115ad57858101830151858201604001528201611591565b506000604082860101526040601f19601f8301168501019250505092915050565b600181811c908216806115e257607f821691505b60208210810361160257634e487b7160e01b600052602260045260246000fd5b50919050565b601f82111561064857600081815260208120601f850160051c8101602086101561162f5750805b601f850160051c820191505b8181101561164e5782815560010161163b565b505050505050565b815167ffffffffffffffff811115611670576116706111fc565b6116848161167e84546115ce565b84611608565b602080601f8311600181146116b957600084156116a15750858301515b600019600386901b1c1916600185901b17855561164e565b600085815260208120601f198616915b828110156116e8578886015182559484019460019091019084016116c9565b50858210156117065787850151600019600388901b60f8161c191681555b5050505050600190811b01905550565b8181038181111561172957611729611516565b92915050565b81810361173a575050565b61174482546115ce565b67ffffffffffffffff81111561175c5761175c6111fc565b61176a8161167e84546115ce565b6000601f82116001811461179e57600083156117865750848201545b600019600385901b1c1916600184901b178455611803565b600085815260209020601f19841690600086815260209020845b838110156117d857828601548255600195860195909101906020016117b8565b50858310156117f65781850154600019600388901b60f8161c191681555b50505060018360011b0184555b5050505050565b634e487b7160e01b600052603160045260246000fdfea26469706673582212205bd82fe5824d5ce897fe24d97f91a3b5ed508b9396a7e77567e0d3731efec91564736f6c63430008110033",
  "linkReferences": {},
  "deployedLinkReferences": {}
}