{
  "_format": "hh-sol-artifact-1",
  "contractName": "Certification",
  "sourceName": "contracts/Certification.sol",
  "abi": [
    {
      "inputs": [
        {
          "internalType": "string",
          "name": "_degreeName",
          "type": "string"
        },
        {
          "internalType": "string",
          "name": "_degreeSymbol",
          "type": "string"
        },
        {
          "internalType": "string",
          "name": "_baseURI",
          "type": "string"
        }
      ],
      "stateMutability": "nonpayable",
      "type": "constructor"
    },
    {
      "inputs": [],
      "name": "notOwner",
      "type": "error"
    },
    {
      "anonymous": false,
      "inputs": [
        {
          "indexed": true,
          "internalType": "address",
          "name": "owner",
          "type": "address"
        },
        {
          "indexed": true,
          "internalType": "address",
          "name": "approved",
          "type": "address"
        },
        {
          "indexed": true,
          "internalType": "uint256",
          "name": "tokenId",
          "type": "uint256"
        }
      ],
      "name": "Approval",
      "type": "event"
    },
    {
      "anonymous": false,
      "inputs": [
        {
          "indexed": true,
          "internalType": "address",
          "name": "owner",
          "type": "address"
        },
        {
          "indexed": true,
          "internalType": "address",
          "name": "operator",
          "type": "address"
        },
        {
          "indexed": false,
          "internalType": "bool",
          "name": "approved",
          "type": "bool"
        }
      ],
      "name": "ApprovalForAll",
      "type": "event"
    },
    {
      "anonymous": false,
      "inputs": [
        {
          "indexed": true,
          "internalType": "address",
          "name": "to",
          "type": "address"
        },
        {
          "indexed": false,
          "internalType": "uint256",
          "name": "tokenId",
          "type": "uint256"
        }
      ],
      "name": "Attest",
      "type": "event"
    },
    {
      "anonymous": false,
      "inputs": [
        {
          "indexed": true,
          "internalType": "address",
          "name": "to",
          "type": "address"
        },
        {
          "indexed": false,
          "internalType": "uint256",
          "name": "tokenId",
          "type": "uint256"
        }
      ],
      "name": "Revoke",
      "type": "event"
    },
    {
      "anonymous": false,
      "inputs": [
        {
          "indexed": true,
          "internalType": "address",
          "name": "from",
          "type": "address"
        },
        {
          "indexed": true,
          "internalType": "address",
          "name": "to",
          "type": "address"
        },
        {
          "indexed": true,
          "internalType": "uint256",
          "name": "tokenId",
          "type": "uint256"
        }
      ],
      "name": "Transfer",
      "type": "event"
    },
    {
      "inputs": [],
      "name": "Owner",
      "outputs": [
        {
          "internalType": "address",
          "name": "",
          "type": "address"
        }
      ],
      "stateMutability": "view",
      "type": "function"
    },
    {
      "inputs": [],
      "name": "_tokenIds",
      "outputs": [
        {
          "internalType": "uint256",
          "name": "_value",
          "type": "uint256"
        }
      ],
      "stateMutability": "view",
      "type": "function"
    },
    {
      "inputs": [
        {
          "internalType": "address",
          "name": "to",
          "type": "address"
        },
        {
          "internalType": "uint256",
          "name": "tokenId",
          "type": "uint256"
        }
      ],
      "name": "approve",
      "outputs": [],
      "stateMutability": "nonpayable",
      "type": "function"
    },
    {
      "inputs": [
        {
          "internalType": "address",
          "name": "owner",
          "type": "address"
        }
      ],
      "name": "balanceOf",
      "outputs": [
        {
          "internalType": "uint256",
          "name": "",
          "type": "uint256"
        }
      ],
      "stateMutability": "view",
      "type": "function"
    },
    {
      "inputs": [],
      "name": "baseURI",
      "outputs": [
        {
          "internalType": "string",
          "name": "",
          "type": "string"
        }
      ],
      "stateMutability": "view",
      "type": "function"
    },
    {
      "inputs": [],
      "name": "claimDegree",
      "outputs": [
        {
          "internalType": "uint256",
          "name": "",
          "type": "uint256"
        }
      ],
      "stateMutability": "nonpayable",
      "type": "function"
    },
    {
      "inputs": [
        {
          "internalType": "uint256",
          "name": "tokenId",
          "type": "uint256"
        }
      ],
      "name": "getApproved",
      "outputs": [
        {
          "internalType": "address",
          "name": "",
          "type": "address"
        }
      ],
      "stateMutability": "view",
      "type": "function"
    },
    {
      "inputs": [
        {
          "internalType": "address",
          "name": "owner",
          "type": "address"
        },
        {
          "internalType": "address",
          "name": "operator",
          "type": "address"
        }
      ],
      "name": "isApprovedForAll",
      "outputs": [
        {
          "internalType": "bool",
          "name": "",
          "type": "bool"
        }
      ],
      "stateMutability": "view",
      "type": "function"
    },
    {
      "inputs": [
        {
          "internalType": "address",
          "name": "_to",
          "type": "address"
        }
      ],
      "name": "issueDegrees",
      "outputs": [],
      "stateMutability": "nonpayable",
      "type": "function"
    },
    {
      "inputs": [
        {
          "internalType": "address",
          "name": "",
          "type": "address"
        }
      ],
      "name": "issuedDegrees",
      "outputs": [
        {
          "internalType": "bool",
          "name": "",
          "type": "bool"
        }
      ],
      "stateMutability": "view",
      "type": "function"
    },
    {
      "inputs": [],
      "name": "name",
      "outputs": [
        {
          "internalType": "string",
          "name": "",
          "type": "string"
        }
      ],
      "stateMutability": "view",
      "type": "function"
    },
    {
      "inputs": [
        {
          "internalType": "uint256",
          "name": "tokenId",
          "type": "uint256"
        }
      ],
      "name": "ownerOf",
      "outputs": [
        {
          "internalType": "address",
          "name": "",
          "type": "address"
        }
      ],
      "stateMutability": "view",
      "type": "function"
    },
    {
      "inputs": [
        {
          "internalType": "address",
          "name": "",
          "type": "address"
        }
      ],
      "name": "personToDegree",
      "outputs": [
        {
          "internalType": "string",
          "name": "",
          "type": "string"
        }
      ],
      "stateMutability": "view",
      "type": "function"
    },
    {
      "inputs": [
        {
          "internalType": "uint256",
          "name": "tokenId",
          "type": "uint256"
        }
      ],
      "name": "revoke",
      "outputs": [],
      "stateMutability": "nonpayable",
      "type": "function"
    },
    {
      "inputs": [
        {
          "internalType": "address",
          "name": "from",
          "type": "address"
        },
        {
          "internalType": "address",
          "name": "to",
          "type": "address"
        },
        {
          "internalType": "uint256",
          "name": "tokenId",
          "type": "uint256"
        }
      ],
      "name": "safeTransferFrom",
      "outputs": [],
      "stateMutability": "nonpayable",
      "type": "function"
    },
    {
      "inputs": [
        {
          "internalType": "address",
          "name": "from",
          "type": "address"
        },
        {
          "internalType": "address",
          "name": "to",
          "type": "address"
        },
        {
          "internalType": "uint256",
          "name": "tokenId",
          "type": "uint256"
        },
        {
          "internalType": "bytes",
          "name": "data",
          "type": "bytes"
        }
      ],
      "name": "safeTransferFrom",
      "outputs": [],
      "stateMutability": "nonpayable",
      "type": "function"
    },
    {
      "inputs": [
        {
          "internalType": "address",
          "name": "operator",
          "type": "address"
        },
        {
          "internalType": "bool",
          "name": "approved",
          "type": "bool"
        }
      ],
      "name": "setApprovalForAll",
      "outputs": [],
      "stateMutability": "nonpayable",
      "type": "function"
    },
    {
      "inputs": [
        {
          "internalType": "bytes4",
          "name": "interfaceId",
          "type": "bytes4"
        }
      ],
      "name": "supportsInterface",
      "outputs": [
        {
          "internalType": "bool",
          "name": "",
          "type": "bool"
        }
      ],
      "stateMutability": "view",
      "type": "function"
    },
    {
      "inputs": [],
      "name": "symbol",
      "outputs": [
        {
          "internalType": "string",
          "name": "",
          "type": "string"
        }
      ],
      "stateMutability": "view",
      "type": "function"
    },
    {
      "inputs": [
        {
          "internalType": "uint256",
          "name": "tokenId",
          "type": "uint256"
        }
      ],
      "name": "tokenURI",
      "outputs": [
        {
          "internalType": "string",
          "name": "",
          "type": "string"
        }
      ],
      "stateMutability": "view",
      "type": "function"
    },
    {
      "inputs": [
        {
          "internalType": "address",
          "name": "from",
          "type": "address"
        },
        {
          "internalType": "address",
          "name": "to",
          "type": "address"
        },
        {
          "internalType": "uint256",
          "name": "tokenId",
          "type": "uint256"
        }
      ],
      "name": "transferFrom",
      "outputs": [],
      "stateMutability": "nonpayable",
      "type": "function"
    }
  ],
  "bytecode": "0x60a06040523480156200001157600080fd5b5060405162001ea138038062001ea1833981016040819052620000349162000137565b8282600062000044838262000257565b50600162000053828262000257565b50503360805250600862000068828262000257565b5050505062000323565b634e487b7160e01b600052604160045260246000fd5b600082601f8301126200009a57600080fd5b81516001600160401b0380821115620000b757620000b762000072565b604051601f8301601f19908116603f01168101908282118183101715620000e257620000e262000072565b81604052838152602092508683858801011115620000ff57600080fd5b600091505b8382101562000123578582018301518183018401529082019062000104565b600093810190920192909252949350505050565b6000806000606084860312156200014d57600080fd5b83516001600160401b03808211156200016557600080fd5b620001738783880162000088565b945060208601519150808211156200018a57600080fd5b620001988783880162000088565b93506040860151915080821115620001af57600080fd5b50620001be8682870162000088565b9150509250925092565b600181811c90821680620001dd57607f821691505b602082108103620001fe57634e487b7160e01b600052602260045260246000fd5b50919050565b601f8211156200025257600081815260208120601f850160051c810160208610156200022d5750805b601f850160051c820191505b818110156200024e5782815560010162000239565b5050505b505050565b81516001600160401b0381111562000273576200027362000072565b6200028b81620002848454620001c8565b8462000204565b602080601f831160018114620002c35760008415620002aa5750858301515b600019600386901b1c1916600185901b1785556200024e565b600085815260208120601f198616915b82811015620002f457888601518255948401946001909101908401620002d3565b5085821015620003135787850151600019600388901b60f8161c191681555b5050505050600190811b01905550565b608051611b546200034d600039600081816102860152818161055401526106fe0152611b546000f3fe608060405234801561001057600080fd5b50600436106101375760003560e01c80636f247261116100b8578063aa46a4001161007c578063aa46a40014610277578063b4a99a4e14610281578063b88d4fde146102a8578063c87b56dd146102bb578063e985e9c5146102ce578063f5caa7631461030a57600080fd5b80636f2472611461022057806370a0823114610233578063723f53521461025457806395d89b411461025c578063a22cb4651461026457600080fd5b806323b872dd116100ff57806323b872dd146101cc57806337f902f0146101df57806342842e0e146101f25780636352211e146102055780636c0360eb1461021857600080fd5b806301ffc9a71461013c57806306fdde0314610164578063081812fc14610179578063095ea7b3146101a457806320c5429b146101b9575b600080fd5b61014f61014a3660046114f7565b61032d565b60405190151581526020015b60405180910390f35b61016c61037f565b60405161015b9190611564565b61018c610187366004611577565b610411565b6040516001600160a01b03909116815260200161015b565b6101b76101b23660046115ac565b610438565b005b6101b76101c7366004611577565b610552565b6101b76101da3660046115d6565b6105a9565b61016c6101ed366004611612565b6105da565b6101b76102003660046115d6565b610674565b61018c610213366004611577565b61068f565b61016c6106ef565b6101b761022e366004611612565b6106fc565b610246610241366004611612565b61076b565b60405190815260200161015b565b6102466107f1565b61016c610934565b6101b761027236600461162d565b610943565b6007546102469081565b61018c7f000000000000000000000000000000000000000000000000000000000000000081565b6101b76102b636600461167f565b61094e565b61016c6102c9366004611577565b610986565b61014f6102dc36600461175b565b6001600160a01b03918216600090815260056020908152604080832093909416825291909152205460ff1690565b61014f610318366004611612565b60096020526000908152604090205460ff1681565b60006001600160e01b031982166380ac58cd60e01b148061035e57506001600160e01b03198216635b5e139f60e01b145b8061037957506301ffc9a760e01b6001600160e01b03198316145b92915050565b60606000805461038e9061178e565b80601f01602080910402602001604051908101604052809291908181526020018280546103ba9061178e565b80156104075780601f106103dc57610100808354040283529160200191610407565b820191906000526020600020905b8154815290600101906020018083116103ea57829003601f168201915b5050505050905090565b600061041c82610991565b506000908152600460205260409020546001600160a01b031690565b60006104438261068f565b9050806001600160a01b0316836001600160a01b0316036104b55760405162461bcd60e51b815260206004820152602160248201527f4552433732313a20617070726f76616c20746f2063757272656e74206f776e656044820152603960f91b60648201526084015b60405180910390fd5b336001600160a01b03821614806104d157506104d181336102dc565b6105435760405162461bcd60e51b815260206004820152603d60248201527f4552433732313a20617070726f76652063616c6c6572206973206e6f7420746f60448201527f6b656e206f776e6572206f7220617070726f76656420666f7220616c6c00000060648201526084016104ac565b61054d83836109f3565b505050565b7f0000000000000000000000000000000000000000000000000000000000000000336001600160a01b0382161461059c5760405163251c9d6360e01b815260040160405180910390fd5b6105a582610a61565b5050565b6105b33382610ad4565b6105cf5760405162461bcd60e51b81526004016104ac906117c8565b61054d838383610b53565b600a60205260009081526040902080546105f39061178e565b80601f016020809104026020016040519081016040528092919081815260200182805461061f9061178e565b801561066c5780601f106106415761010080835404028352916020019161066c565b820191906000526020600020905b81548152906001019060200180831161064f57829003601f168201915b505050505081565b61054d8383836040518060200160405280600081525061094e565b6000818152600260205260408120546001600160a01b0316806103795760405162461bcd60e51b8152602060048201526018602482015277115490cdcc8c4e881a5b9d985b1a59081d1bdad95b88125160421b60448201526064016104ac565b600880546105f39061178e565b7f0000000000000000000000000000000000000000000000000000000000000000336001600160a01b038216146107465760405163251c9d6360e01b815260040160405180910390fd5b506001600160a01b03166000908152600960205260409020805460ff19166001179055565b60006001600160a01b0382166107d55760405162461bcd60e51b815260206004820152602960248201527f4552433732313a2061646472657373207a65726f206973206e6f7420612076616044820152683634b21037bbb732b960b91b60648201526084016104ac565b506001600160a01b031660009081526003602052604090205490565b3360009081526009602052604081205460ff166108445760405162461bcd60e51b8152602060048201526011602482015270111959dc9959481b9bdd081a5cdcdd5959607a1b60448201526064016104ac565b610852600780546001019055565b600061085d60075490565b90506108693382610cb7565b6108fd816008805461087a9061178e565b80601f01602080910402602001604051908101604052809291908181526020018280546108a69061178e565b80156108f35780601f106108c8576101008083540402835291602001916108f3565b820191906000526020600020905b8154815290600101906020018083116108d657829003601f168201915b5050505050610e42565b336000908152600a60205260409020610917600882611863565b50336000908152600960205260409020805460ff19169055905090565b60606001805461038e9061178e565b6105a5338383610ed5565b6109583383610ad4565b6109745760405162461bcd60e51b81526004016104ac906117c8565b61098084848484610fa3565b50505050565b606061037982610fd6565b6000818152600260205260409020546001600160a01b03166109f05760405162461bcd60e51b8152602060048201526018602482015277115490cdcc8c4e881a5b9d985b1a59081d1bdad95b88125160421b60448201526064016104ac565b50565b600081815260046020526040902080546001600160a01b0319166001600160a01b0384169081179091558190610a288261068f565b6001600160a01b03167f8c5be1e5ebec7d5bd14f71427d1e84f3dd0314c0f7b2291e5b200ac8c7c3b92560405160405180910390a45050565b33610a6b8261068f565b6001600160a01b031614610acb5760405162461bcd60e51b815260206004820152602160248201527f4f6e6c79204f776e65722063616e2063616c6c20746869732066756e6374696f6044820152603760f91b60648201526084016104ac565b6109f0816110de565b600080610ae08361068f565b9050806001600160a01b0316846001600160a01b03161480610b2757506001600160a01b0380821660009081526005602090815260408083209388168352929052205460ff165b80610b4b5750836001600160a01b0316610b4084610411565b6001600160a01b0316145b949350505050565b826001600160a01b0316610b668261068f565b6001600160a01b031614610b8c5760405162461bcd60e51b81526004016104ac90611944565b6001600160a01b038216610bee5760405162461bcd60e51b8152602060048201526024808201527f4552433732313a207472616e7366657220746f20746865207a65726f206164646044820152637265737360e01b60648201526084016104ac565b826001600160a01b0316610c018261068f565b6001600160a01b031614610c275760405162461bcd60e51b81526004016104ac90611944565b600081815260046020908152604080832080546001600160a01b03199081169091556001600160a01b0387811680865260038552838620805460001901905590871680865283862080546001019055868652600290945282852080549092168417909155905184937fddf252ad1be2c89b69c2b068fc378daa952ba7f163c4a11628f55a4df523b3ef91a4505050565b6001600160a01b038216610d0d5760405162461bcd60e51b815260206004820181905260248201527f4552433732313a206d696e7420746f20746865207a65726f206164647265737360448201526064016104ac565b6000818152600260205260409020546001600160a01b031615610d725760405162461bcd60e51b815260206004820152601c60248201527f4552433732313a20746f6b656e20616c7265616479206d696e7465640000000060448201526064016104ac565b6000818152600260205260409020546001600160a01b031615610dd75760405162461bcd60e51b815260206004820152601c60248201527f4552433732313a20746f6b656e20616c7265616479206d696e7465640000000060448201526064016104ac565b6001600160a01b038216600081815260036020908152604080832080546001019055848352600290915280822080546001600160a01b0319168417905551839291907fddf252ad1be2c89b69c2b068fc378daa952ba7f163c4a11628f55a4df523b3ef908290a45050565b6000828152600260205260409020546001600160a01b0316610ebd5760405162461bcd60e51b815260206004820152602e60248201527f45524337323155524953746f726167653a2055524920736574206f66206e6f6e60448201526d32bc34b9ba32b73a103a37b5b2b760911b60648201526084016104ac565b600082815260066020526040902061054d8282611989565b816001600160a01b0316836001600160a01b031603610f365760405162461bcd60e51b815260206004820152601960248201527f4552433732313a20617070726f766520746f2063616c6c65720000000000000060448201526064016104ac565b6001600160a01b03838116600081815260056020908152604080832094871680845294825291829020805460ff191686151590811790915591519182527f17307eab39ab6107e8899845ad3d59bd9653f200f220920489ca2b5937696c31910160405180910390a3505050565b610fae848484610b53565b610fba8484848461111e565b6109805760405162461bcd60e51b81526004016104ac90611a43565b6060610fe182610991565b60008281526006602052604081208054610ffa9061178e565b80601f01602080910402602001604051908101604052809291908181526020018280546110269061178e565b80156110735780601f1061104857610100808354040283529160200191611073565b820191906000526020600020905b81548152906001019060200180831161105657829003601f168201915b50505050509050600061109160408051602081019091526000815290565b905080516000036110a3575092915050565b8151156110d55780826040516020016110bd929190611a95565b60405160208183030381529060405292505050919050565b610b4b8461121f565b6110e781611293565b600081815260066020526040902080546111009061178e565b1590506109f05760008181526006602052604081206109f091611493565b60006001600160a01b0384163b1561121457604051630a85bd0160e11b81526001600160a01b0385169063150b7a0290611162903390899088908890600401611ac4565b6020604051808303816000875af192505050801561119d575060408051601f3d908101601f1916820190925261119a91810190611b01565b60015b6111fa573d8080156111cb576040519150601f19603f3d011682016040523d82523d6000602084013e6111d0565b606091505b5080516000036111f25760405162461bcd60e51b81526004016104ac90611a43565b805181602001fd5b6001600160e01b031916630a85bd0160e11b149050610b4b565b506001949350505050565b606061122a82610991565b600061124160408051602081019091526000815290565b90506000815111611261576040518060200160405280600081525061128c565b8061126b84611328565b60405160200161127c929190611a95565b6040516020818303038152906040525b9392505050565b600061129e8261068f565b90506112a98261068f565b600083815260046020908152604080832080546001600160a01b03199081169091556001600160a01b0385168085526003845282852080546000190190558785526002909352818420805490911690555192935084927fddf252ad1be2c89b69c2b068fc378daa952ba7f163c4a11628f55a4df523b3ef908390a45050565b60606000611335836113bb565b600101905060008167ffffffffffffffff81111561135557611355611669565b6040519080825280601f01601f19166020018201604052801561137f576020820181803683370190505b5090508181016020015b600019016f181899199a1a9b1b9c1cb0b131b232b360811b600a86061a8153600a850494508461138957509392505050565b60008072184f03e93ff9f4daa797ed6e38ed64bf6a1f0160401b83106113fa5772184f03e93ff9f4daa797ed6e38ed64bf6a1f0160401b830492506040015b6d04ee2d6d415b85acef81000000008310611426576d04ee2d6d415b85acef8100000000830492506020015b662386f26fc10000831061144457662386f26fc10000830492506010015b6305f5e100831061145c576305f5e100830492506008015b612710831061147057612710830492506004015b60648310611482576064830492506002015b600a83106103795760010192915050565b50805461149f9061178e565b6000825580601f106114af575050565b601f0160209004906000526020600020908101906109f091905b808211156114dd57600081556001016114c9565b5090565b6001600160e01b0319811681146109f057600080fd5b60006020828403121561150957600080fd5b813561128c816114e1565b60005b8381101561152f578181015183820152602001611517565b50506000910152565b60008151808452611550816020860160208601611514565b601f01601f19169290920160200192915050565b60208152600061128c6020830184611538565b60006020828403121561158957600080fd5b5035919050565b80356001600160a01b03811681146115a757600080fd5b919050565b600080604083850312156115bf57600080fd5b6115c883611590565b946020939093013593505050565b6000806000606084860312156115eb57600080fd5b6115f484611590565b925061160260208501611590565b9150604084013590509250925092565b60006020828403121561162457600080fd5b61128c82611590565b6000806040838503121561164057600080fd5b61164983611590565b91506020830135801515811461165e57600080fd5b809150509250929050565b634e487b7160e01b600052604160045260246000fd5b6000806000806080858703121561169557600080fd5b61169e85611590565b93506116ac60208601611590565b925060408501359150606085013567ffffffffffffffff808211156116d057600080fd5b818701915087601f8301126116e457600080fd5b8135818111156116f6576116f6611669565b604051601f8201601f19908116603f0116810190838211818310171561171e5761171e611669565b816040528281528a602084870101111561173757600080fd5b82602086016020830137600060208483010152809550505050505092959194509250565b6000806040838503121561176e57600080fd5b61177783611590565b915061178560208401611590565b90509250929050565b600181811c908216806117a257607f821691505b6020821081036117c257634e487b7160e01b600052602260045260246000fd5b50919050565b6020808252602d908201527f4552433732313a2063616c6c6572206973206e6f7420746f6b656e206f776e6560408201526c1c881bdc88185c1c1c9bdd9959609a1b606082015260800190565b601f82111561054d57600081815260208120601f850160051c8101602086101561183c5750805b601f850160051c820191505b8181101561185b57828155600101611848565b505050505050565b81810361186e575050565b611878825461178e565b67ffffffffffffffff81111561189057611890611669565b6118a48161189e845461178e565b84611815565b6000601f8211600181146118d857600083156118c05750848201545b600019600385901b1c1916600184901b17845561193d565b600085815260209020601f19841690600086815260209020845b8381101561191257828601548255600195860195909101906020016118f2565b50858310156119305781850154600019600388901b60f8161c191681555b50505060018360011b0184555b5050505050565b60208082526025908201527f4552433732313a207472616e736665722066726f6d20696e636f72726563742060408201526437bbb732b960d91b606082015260800190565b815167ffffffffffffffff8111156119a3576119a3611669565b6119b18161189e845461178e565b602080601f8311600181146119e657600084156119ce5750858301515b600019600386901b1c1916600185901b17855561185b565b600085815260208120601f198616915b82811015611a15578886015182559484019460019091019084016119f6565b5085821015611a335787850151600019600388901b60f8161c191681555b5050505050600190811b01905550565b60208082526032908201527f4552433732313a207472616e7366657220746f206e6f6e20455243373231526560408201527131b2b4bb32b91034b6b83632b6b2b73a32b960711b606082015260800190565b60008351611aa7818460208801611514565b835190830190611abb818360208801611514565b01949350505050565b6001600160a01b0385811682528416602082015260408101839052608060608201819052600090611af790830184611538565b9695505050505050565b600060208284031215611b1357600080fd5b815161128c816114e156fea26469706673582212201546f5968895a7d404a8eb0823d791ed4d6c2bc1bc0f4242f54f1f2f6f756d0064736f6c63430008110033",
  "linkReferences": {},
  "deployedLinkReferences": {}
}